{
  "contractName": "ConsumerRole",
  "abi": [
    {
      "inputs": [],
      "stateMutability": "nonpayable",
      "type": "constructor"
    },
    {
      "anonymous": false,
      "inputs": [
        {
          "indexed": true,
          "internalType": "address",
          "name": "account",
          "type": "address"
        }
      ],
      "name": "ConsumerAdded",
      "type": "event"
    },
    {
      "anonymous": false,
      "inputs": [
        {
          "indexed": true,
          "internalType": "address",
          "name": "account",
          "type": "address"
        }
      ],
      "name": "ConsumerRemoved",
      "type": "event"
    },
    {
      "inputs": [
        {
          "internalType": "address",
          "name": "account",
          "type": "address"
        }
      ],
      "name": "isConsumer",
      "outputs": [
        {
          "internalType": "bool",
          "name": "",
          "type": "bool"
        }
      ],
      "stateMutability": "view",
      "type": "function",
      "constant": true
    },
    {
      "inputs": [
        {
          "internalType": "address",
          "name": "account",
          "type": "address"
        }
      ],
      "name": "addConsumer",
      "outputs": [],
      "stateMutability": "nonpayable",
      "type": "function"
    },
    {
      "inputs": [],
      "name": "renounceConsumer",
      "outputs": [],
      "stateMutability": "nonpayable",
      "type": "function"
    }
  ],
  "bytecode": "0x608060405234801561001057600080fd5b506100203361002560201b60201c565b6101c7565b61003d81600061008360201b6101821790919060201c565b8073ffffffffffffffffffffffffffffffffffffffff167f28b26e7a3d20aedbc5f8f2ebf7da671c0491723a2b78f47a097b0e46dee0714260405160405180910390a250565b600073ffffffffffffffffffffffffffffffffffffffff168173ffffffffffffffffffffffffffffffffffffffff1614156100bd57600080fd5b6100cd828261013560201b60201c565b156100d757600080fd5b60018260000160008373ffffffffffffffffffffffffffffffffffffffff1673ffffffffffffffffffffffffffffffffffffffff16815260200190815260200160002060006101000a81548160ff0219169083151502179055505050565b60008073ffffffffffffffffffffffffffffffffffffffff168273ffffffffffffffffffffffffffffffffffffffff16141561017057600080fd5b8260000160008373ffffffffffffffffffffffffffffffffffffffff1673ffffffffffffffffffffffffffffffffffffffff16815260200190815260200160002060009054906101000a900460ff16905092915050565b610477806101d66000396000f3fe608060405234801561001057600080fd5b50600436106100415760003560e01c8063112940f91461004657806361e6982d1461008a578063834ff73914610094575b600080fd5b6100886004803603602081101561005c57600080fd5b81019080803573ffffffffffffffffffffffffffffffffffffffff1690602001909291905050506100f0565b005b61009261015a565b005b6100d6600480360360208110156100aa57600080fd5b81019080803573ffffffffffffffffffffffffffffffffffffffff169060200190929190505050610165565b604051808215151515815260200191505060405180910390f35b6100f933610165565b61014e576040517f08c379a00000000000000000000000000000000000000000000000000000000081526004018080602001828103825260228152602001806104206022913960400191505060405180910390fd5b6101578161022e565b50565b61016333610288565b565b600061017b8260006102e290919063ffffffff16565b9050919050565b600073ffffffffffffffffffffffffffffffffffffffff168173ffffffffffffffffffffffffffffffffffffffff1614156101bc57600080fd5b6101c682826102e2565b156101d057600080fd5b60018260000160008373ffffffffffffffffffffffffffffffffffffffff1673ffffffffffffffffffffffffffffffffffffffff16815260200190815260200160002060006101000a81548160ff0219169083151502179055505050565b61024281600061018290919063ffffffff16565b8073ffffffffffffffffffffffffffffffffffffffff167f28b26e7a3d20aedbc5f8f2ebf7da671c0491723a2b78f47a097b0e46dee0714260405160405180910390a250565b61029c81600061037490919063ffffffff16565b8073ffffffffffffffffffffffffffffffffffffffff167fe3f5ed5f263f1f01764a96edfc7d025f511ec5f7d180e8816908b78bcf74f09860405160405180910390a250565b60008073ffffffffffffffffffffffffffffffffffffffff168273ffffffffffffffffffffffffffffffffffffffff16141561031d57600080fd5b8260000160008373ffffffffffffffffffffffffffffffffffffffff1673ffffffffffffffffffffffffffffffffffffffff16815260200190815260200160002060009054906101000a900460ff16905092915050565b600073ffffffffffffffffffffffffffffffffffffffff168173ffffffffffffffffffffffffffffffffffffffff1614156103ae57600080fd5b6103b882826102e2565b6103c157600080fd5b60008260000160008373ffffffffffffffffffffffffffffffffffffffff1673ffffffffffffffffffffffffffffffffffffffff16815260200190815260200160002060006101000a81548160ff021916908315150217905550505056fe796f7520646f6e74206861766520636f6e73756d65722061636365737320726f6c65a2646970667358221220e126f2c1c2b8998d2b4d9093375eb69c4dea1af4bb1ce216fd50a7286e09139e64736f6c634300060b0033",
  "immutableReferences": {},
  "source": "pragma solidity >=0.4.24;\n\n// Import the library 'Roles'\nimport \"./Roles.sol\";\n\n// Define a contract 'ConsumerRole' to manage this role - add, remove, check\ncontract ConsumerRole {\n  using Roles for Roles.Role;\n  // Define 2 events, one for Adding, and other for Removing\n    event ConsumerRemoved(address indexed account);\n    event ConsumerAdded(address indexed account);\n\n  // Define a struct 'consumers' by inheriting from 'Roles' library, struct Role\n  Roles.Role private consumers;\n\n  // In the constructor make the address that deploys this contract the 1st consumer\n  constructor() public {\n    _addConsumer(msg.sender);\n  }\n\n  // Define a modifier that checks to see if msg.sender has the appropriate role\n  modifier onlyConsumer() {\n    require(isConsumer(msg.sender), \"you dont have consumer access role\");\n    _;\n  }\n\n  // Define a function 'isConsumer' to check this role\n  function isConsumer(address account) public view returns (bool) {\n    return consumers.has(account);\n  }\n\n  // Define a function 'addConsumer' that adds this role\n  function addConsumer(address account) public onlyConsumer {\n    _addConsumer(account);\n  }\n\n  // Define a function 'renounceConsumer' to renounce this role\n  function renounceConsumer() public {\n    _removeConsumer(msg.sender);\n  }\n\n  // Define an internal function '_addConsumer' to add this role, called by 'addConsumer'\n  function _addConsumer(address account) internal {\n    consumers.add(account);\n    emit ConsumerAdded(account);\n  }\n\n  // Define an internal function '_removeConsumer' to remove this role, called by 'removeConsumer'\n  function _removeConsumer(address account) internal {\n    consumers.remove(account);\n    emit ConsumerRemoved(account);\n  }\n}",
  "sourcePath": "/Users/ammar/Documents/Blockchain-Udacity/supply-chain/Supply-Chain-project/project/contracts/coffeeaccesscontrol/ConsumerRole.sol",
  "compiler": {
    "name": "solc",
    "version": "0.6.11+commit.5ef660b1.Emscripten.clang"
  },
  "schemaVersion": "3.2.0",
  "updatedAt": "2020-07-16T21:44:19.873Z",
  "networkType": "ethereum",
  "devdoc": {
    "kind": "dev",
    "methods": {},
    "version": 1
  },
  "userdoc": {
    "kind": "user",
    "methods": {},
    "version": 1
  }
}